{"abi":[{"type":"constructor","inputs":[{"name":"_token","type":"address","internalType":"address"},{"name":"_endTime","type":"uint256","internalType":"uint256"},{"name":"_maxClaimPerUser","type":"uint256","internalType":"uint256"},{"name":"_owner","type":"address","internalType":"address"}],"stateMutability":"nonpayable"},{"type":"function","name":"claimAirdrop","inputs":[{"name":"_referrer","type":"address","internalType":"address"}],"outputs":[],"stateMutability":"nonpayable"},{"type":"function","name":"endTime","inputs":[],"outputs":[{"name":"","type":"uint256","internalType":"uint256"}],"stateMutability":"view"},{"type":"function","name":"getContractTokenBalance","inputs":[],"outputs":[{"name":"","type":"uint256","internalType":"uint256"}],"stateMutability":"view"},{"type":"function","name":"hasClaimed","inputs":[{"name":"","type":"address","internalType":"address"}],"outputs":[{"name":"","type":"bool","internalType":"bool"}],"stateMutability":"view"},{"type":"function","name":"hivxToken","inputs":[],"outputs":[{"name":"","type":"address","internalType":"contract IERC20"}],"stateMutability":"view"},{"type":"function","name":"maxClaimPerUser","inputs":[],"outputs":[{"name":"","type":"uint256","internalType":"uint256"}],"stateMutability":"view"},{"type":"function","name":"owner","inputs":[],"outputs":[{"name":"","type":"address","internalType":"address"}],"stateMutability":"view"},{"type":"function","name":"pause","inputs":[],"outputs":[],"stateMutability":"nonpayable"},{"type":"function","name":"paused","inputs":[],"outputs":[{"name":"","type":"bool","internalType":"bool"}],"stateMutability":"view"},{"type":"function","name":"referralPercentages","inputs":[{"name":"","type":"uint256","internalType":"uint256"}],"outputs":[{"name":"","type":"uint256","internalType":"uint256"}],"stateMutability":"view"},{"type":"function","name":"referredUsers","inputs":[{"name":"","type":"address","internalType":"address"},{"name":"","type":"uint256","internalType":"uint256"}],"outputs":[{"name":"","type":"address","internalType":"address"}],"stateMutability":"view"},{"type":"function","name":"referrerOf","inputs":[{"name":"","type":"address","internalType":"address"}],"outputs":[{"name":"","type":"address","internalType":"address"}],"stateMutability":"view"},{"type":"function","name":"renounceOwnership","inputs":[],"outputs":[],"stateMutability":"nonpayable"},{"type":"function","name":"transferOwnership","inputs":[{"name":"newOwner","type":"address","internalType":"address"}],"outputs":[],"stateMutability":"nonpayable"},{"type":"function","name":"unpause","inputs":[],"outputs":[],"stateMutability":"nonpayable"},{"type":"function","name":"updateReferralPercentages","inputs":[{"name":"_percentages","type":"uint256[]","internalType":"uint256[]"}],"outputs":[],"stateMutability":"nonpayable"},{"type":"function","name":"withdrawRemaining","inputs":[],"outputs":[],"stateMutability":"nonpayable"},{"type":"event","name":"OwnershipTransferred","inputs":[{"name":"previousOwner","type":"address","indexed":true,"internalType":"address"},{"name":"newOwner","type":"address","indexed":true,"internalType":"address"}],"anonymous":false},{"type":"event","name":"ReferralReward","inputs":[{"name":"referrer","type":"address","indexed":true,"internalType":"address"},{"name":"level","type":"uint256","indexed":false,"internalType":"uint256"},{"name":"reward","type":"uint256","indexed":false,"internalType":"uint256"}],"anonymous":false},{"type":"event","name":"TokensClaimed","inputs":[{"name":"user","type":"address","indexed":true,"internalType":"address"},{"name":"referrer","type":"address","indexed":true,"internalType":"address"},{"name":"amount","type":"uint256","indexed":false,"internalType":"uint256"}],"anonymous":false},{"type":"error","name":"OwnableInvalidOwner","inputs":[{"name":"owner","type":"address","internalType":"address"}]},{"type":"error","name":"OwnableUnauthorizedAccount","inputs":[{"name":"account","type":"address","internalType":"address"}]}],"bytecode":{"object":"0x60806040526040518060600160405280600a60ff168152602001600560ff168152602001600260ff16815250600890600361003b929190610202565b50348015610047575f5ffd5b50604051611bcb380380611bcb833981810160405281019061006991906102fe565b805f73ffffffffffffffffffffffffffffffffffffffff168173ffffffffffffffffffffffffffffffffffffffff16036100da575f6040517f1e4fbdf70000000000000000000000000000000000000000000000000000000081526004016100d19190610371565b60405180910390fd5b6100e98161014160201b60201c565b508360015f6101000a81548173ffffffffffffffffffffffffffffffffffffffff021916908373ffffffffffffffffffffffffffffffffffffffff16021790555082600281905550816003819055505050505061038a565b5f5f5f9054906101000a900473ffffffffffffffffffffffffffffffffffffffff169050815f5f6101000a81548173ffffffffffffffffffffffffffffffffffffffff021916908373ffffffffffffffffffffffffffffffffffffffff1602179055508173ffffffffffffffffffffffffffffffffffffffff168173ffffffffffffffffffffffffffffffffffffffff167f8be0079c531659141344cd1fd0a4f28419497f9722a3daafe3b4186f6b6457e060405160405180910390a35050565b828054828255905f5260205f20908101928215610241579160200282015b82811115610240578251829060ff16905591602001919060010190610220565b5b50905061024e9190610252565b5090565b5b80821115610269575f815f905550600101610253565b5090565b5f5ffd5b5f73ffffffffffffffffffffffffffffffffffffffff82169050919050565b5f61029a82610271565b9050919050565b6102aa81610290565b81146102b4575f5ffd5b50565b5f815190506102c5816102a1565b92915050565b5f819050919050565b6102dd816102cb565b81146102e7575f5ffd5b50565b5f815190506102f8816102d4565b92915050565b5f5f5f5f608085870312156103165761031561026d565b5b5f610323878288016102b7565b9450506020610334878288016102ea565b9350506040610345878288016102ea565b9250506060610356878288016102b7565b91505092959194509250565b61036b81610290565b82525050565b5f6020820190506103845f830184610362565b92915050565b611834806103975f395ff3fe608060405234801561000f575f5ffd5b5060043610610109575f3560e01c80638da5cb5b116100a0578063d21cacdf1161006f578063d21cacdf14610259578063d7b52cda14610289578063e92820e6146102a7578063ee38db95146102d7578063f2fde38b146102e157610109565b80638da5cb5b146101d1578063a410339e146101ef578063b662abf51461020b578063c1225dd91461023b57610109565b806365f8c6c5116100dc57806365f8c6c514610171578063715018a61461018d57806373b2e80e146101975780638456cb59146101c757610109565b8063317d94531461010d5780633197cbb61461012b5780633f4ba83a146101495780635c975abb14610153575b5f5ffd5b6101156102fd565b6040516101229190611076565b60405180910390f35b6101336103a4565b6040516101409190611076565b60405180910390f35b6101516103aa565b005b61015b6103cd565b60405161016891906110a9565b60405180910390f35b61018b60048036038101906101869190611124565b6103df565b005b610195610b40565b005b6101b160048036038101906101ac9190611124565b610b53565b6040516101be91906110a9565b60405180910390f35b6101cf610b70565b005b6101d9610b94565b6040516101e6919061115e565b60405180910390f35b610209600480360381019061020491906111d8565b610bbb565b005b6102256004803603810190610220919061124d565b610bd9565b6040516102329190611076565b60405180910390f35b610243610bf9565b60405161025091906112d3565b60405180910390f35b610273600480360381019061026e9190611124565b610c1e565b604051610280919061115e565b60405180910390f35b610291610c4e565b60405161029e9190611076565b60405180910390f35b6102c160048036038101906102bc91906112ec565b610c54565b6040516102ce919061115e565b60405180910390f35b6102df610c9c565b005b6102fb60048036038101906102f69190611124565b610e25565b005b5f610306610ea9565b60015f9054906101000a900473ffffffffffffffffffffffffffffffffffffffff1673ffffffffffffffffffffffffffffffffffffffff166370a08231306040518263ffffffff1660e01b8152600401610360919061115e565b602060405180830381865afa15801561037b573d5f5f3e3d5ffd5b505050506040513d601f19601f8201168201806040525081019061039f919061133e565b905090565b60025481565b6103b2610ea9565b5f60045f6101000a81548160ff021916908315150217905550565b60045f9054906101000a900460ff1681565b60045f9054906101000a900460ff161561042e576040517f08c379a0000000000000000000000000000000000000000000000000000000008152600401610425906113c3565b60405180910390fd5b600254421115610473576040517f08c379a000000000000000000000000000000000000000000000000000000000815260040161046a9061142b565b60405180910390fd5b60055f3373ffffffffffffffffffffffffffffffffffffffff1673ffffffffffffffffffffffffffffffffffffffff1681526020019081526020015f205f9054906101000a900460ff16156104fd576040517f08c379a00000000000000000000000000000000000000000000000000000000081526004016104f490611493565b60405180910390fd5b600160055f3373ffffffffffffffffffffffffffffffffffffffff1673ffffffffffffffffffffffffffffffffffffffff1681526020019081526020015f205f6101000a81548160ff0219169083151502179055505f73ffffffffffffffffffffffffffffffffffffffff168173ffffffffffffffffffffffffffffffffffffffff16141580156105ba57503373ffffffffffffffffffffffffffffffffffffffff168173ffffffffffffffffffffffffffffffffffffffff1614155b801561064d57505f73ffffffffffffffffffffffffffffffffffffffff1660065f3373ffffffffffffffffffffffffffffffffffffffff1673ffffffffffffffffffffffffffffffffffffffff1681526020019081526020015f205f9054906101000a900473ffffffffffffffffffffffffffffffffffffffff1673ffffffffffffffffffffffffffffffffffffffff16145b15610769578060065f3373ffffffffffffffffffffffffffffffffffffffff1673ffffffffffffffffffffffffffffffffffffffff1681526020019081526020015f205f6101000a81548173ffffffffffffffffffffffffffffffffffffffff021916908373ffffffffffffffffffffffffffffffffffffffff16021790555060075f8273ffffffffffffffffffffffffffffffffffffffff1673ffffffffffffffffffffffffffffffffffffffff1681526020019081526020015f2033908060018154018082558091505060019003905f5260205f20015f9091909190916101000a81548173ffffffffffffffffffffffffffffffffffffffff021916908373ffffffffffffffffffffffffffffffffffffffff1602179055505b5f600354905060015f9054906101000a900473ffffffffffffffffffffffffffffffffffffffff1673ffffffffffffffffffffffffffffffffffffffff1663a9059cbb33836040518363ffffffff1660e01b81526004016107cb9291906114b1565b6020604051808303815f875af11580156107e7573d5f5f3e3d5ffd5b505050506040513d601f19601f8201168201806040525081019061080b9190611502565b61084a576040517f08c379a000000000000000000000000000000000000000000000000000000000815260040161084190611577565b60405180910390fd5b8173ffffffffffffffffffffffffffffffffffffffff163373ffffffffffffffffffffffffffffffffffffffff167fa86305abc2db271df4609aa86a8d044bc11fb36939841bfdad6c1ab2b26e9471836040516108a79190611076565b60405180910390a35f60065f3373ffffffffffffffffffffffffffffffffffffffff1673ffffffffffffffffffffffffffffffffffffffff1681526020019081526020015f205f9054906101000a900473ffffffffffffffffffffffffffffffffffffffff1690505f5f90505b6008805490508110801561095457505f73ffffffffffffffffffffffffffffffffffffffff168273ffffffffffffffffffffffffffffffffffffffff1614155b15610b3a575f6064600883815481106109705761096f611595565b5b905f5260205f2001548561098491906115ef565b61098e919061165d565b905060015f9054906101000a900473ffffffffffffffffffffffffffffffffffffffff1673ffffffffffffffffffffffffffffffffffffffff1663a9059cbb84836040518363ffffffff1660e01b81526004016109ec9291906114b1565b6020604051808303815f875af1158015610a08573d5f5f3e3d5ffd5b505050506040513d601f19601f82011682018060405250810190610a2c9190611502565b610a6b576040517f08c379a0000000000000000000000000000000000000000000000000000000008152600401610a62906116d7565b60405180910390fd5b8273ffffffffffffffffffffffffffffffffffffffff167f11e2632065f1504a0a08dadf5f932c16b0675fba004713f09983b752cb04787d600184610ab091906116f5565b83604051610abf929190611728565b60405180910390a260065f8473ffffffffffffffffffffffffffffffffffffffff1673ffffffffffffffffffffffffffffffffffffffff1681526020019081526020015f205f9054906101000a900473ffffffffffffffffffffffffffffffffffffffff169250508080610b329061174f565b915050610914565b50505050565b610b48610ea9565b610b515f610f30565b565b6005602052805f5260405f205f915054906101000a900460ff1681565b610b78610ea9565b600160045f6101000a81548160ff021916908315150217905550565b5f5f5f9054906101000a900473ffffffffffffffffffffffffffffffffffffffff16905090565b610bc3610ea9565b818160089190610bd4929190610ff8565b505050565b60088181548110610be8575f80fd5b905f5260205f20015f915090505481565b60015f9054906101000a900473ffffffffffffffffffffffffffffffffffffffff1681565b6006602052805f5260405f205f915054906101000a900473ffffffffffffffffffffffffffffffffffffffff1681565b60035481565b6007602052815f5260405f208181548110610c6d575f80fd5b905f5260205f20015f915091509054906101000a900473ffffffffffffffffffffffffffffffffffffffff1681565b610ca4610ea9565b5f60015f9054906101000a900473ffffffffffffffffffffffffffffffffffffffff1673ffffffffffffffffffffffffffffffffffffffff166370a08231306040518263ffffffff1660e01b8152600401610cff919061115e565b602060405180830381865afa158015610d1a573d5f5f3e3d5ffd5b505050506040513d601f19601f82011682018060405250810190610d3e919061133e565b905060015f9054906101000a900473ffffffffffffffffffffffffffffffffffffffff1673ffffffffffffffffffffffffffffffffffffffff1663a9059cbb610d85610b94565b836040518363ffffffff1660e01b8152600401610da39291906114b1565b6020604051808303815f875af1158015610dbf573d5f5f3e3d5ffd5b505050506040513d601f19601f82011682018060405250810190610de39190611502565b610e22576040517f08c379a0000000000000000000000000000000000000000000000000000000008152600401610e19906117e0565b60405180910390fd5b50565b610e2d610ea9565b5f73ffffffffffffffffffffffffffffffffffffffff168173ffffffffffffffffffffffffffffffffffffffff1603610e9d575f6040517f1e4fbdf7000000000000000000000000000000000000000000000000000000008152600401610e94919061115e565b60405180910390fd5b610ea681610f30565b50565b610eb1610ff1565b73ffffffffffffffffffffffffffffffffffffffff16610ecf610b94565b73ffffffffffffffffffffffffffffffffffffffff1614610f2e57610ef2610ff1565b6040517f118cdaa7000000000000000000000000000000000000000000000000000000008152600401610f25919061115e565b60405180910390fd5b565b5f5f5f9054906101000a900473ffffffffffffffffffffffffffffffffffffffff169050815f5f6101000a81548173ffffffffffffffffffffffffffffffffffffffff021916908373ffffffffffffffffffffffffffffffffffffffff1602179055508173ffffffffffffffffffffffffffffffffffffffff168173ffffffffffffffffffffffffffffffffffffffff167f8be0079c531659141344cd1fd0a4f28419497f9722a3daafe3b4186f6b6457e060405160405180910390a35050565b5f33905090565b828054828255905f5260205f20908101928215611032579160200282015b82811115611031578235825591602001919060010190611016565b5b50905061103f9190611043565b5090565b5b8082111561105a575f815f905550600101611044565b5090565b5f819050919050565b6110708161105e565b82525050565b5f6020820190506110895f830184611067565b92915050565b5f8115159050919050565b6110a38161108f565b82525050565b5f6020820190506110bc5f83018461109a565b92915050565b5f5ffd5b5f5ffd5b5f73ffffffffffffffffffffffffffffffffffffffff82169050919050565b5f6110f3826110ca565b9050919050565b611103816110e9565b811461110d575f5ffd5b50565b5f8135905061111e816110fa565b92915050565b5f60208284031215611139576111386110c2565b5b5f61114684828501611110565b91505092915050565b611158816110e9565b82525050565b5f6020820190506111715f83018461114f565b92915050565b5f5ffd5b5f5ffd5b5f5ffd5b5f5f83601f84011261119857611197611177565b5b8235905067ffffffffffffffff8111156111b5576111b461117b565b5b6020830191508360208202830111156111d1576111d061117f565b5b9250929050565b5f5f602083850312156111ee576111ed6110c2565b5b5f83013567ffffffffffffffff81111561120b5761120a6110c6565b5b61121785828601611183565b92509250509250929050565b61122c8161105e565b8114611236575f5ffd5b50565b5f8135905061124781611223565b92915050565b5f60208284031215611262576112616110c2565b5b5f61126f84828501611239565b91505092915050565b5f819050919050565b5f61129b611296611291846110ca565b611278565b6110ca565b9050919050565b5f6112ac82611281565b9050919050565b5f6112bd826112a2565b9050919050565b6112cd816112b3565b82525050565b5f6020820190506112e65f8301846112c4565b92915050565b5f5f60408385031215611302576113016110c2565b5b5f61130f85828601611110565b925050602061132085828601611239565b9150509250929050565b5f8151905061133881611223565b92915050565b5f60208284031215611353576113526110c2565b5b5f6113608482850161132a565b91505092915050565b5f82825260208201905092915050565b7f41697264726f70206973207061757365640000000000000000000000000000005f82015250565b5f6113ad601183611369565b91506113b882611379565b602082019050919050565b5f6020820190508181035f8301526113da816113a1565b9050919050565b7f41697264726f702068617320656e6465640000000000000000000000000000005f82015250565b5f611415601183611369565b9150611420826113e1565b602082019050919050565b5f6020820190508181035f83015261144281611409565b9050919050565b7f416c726561647920636c61696d656400000000000000000000000000000000005f82015250565b5f61147d600f83611369565b915061148882611449565b602082019050919050565b5f6020820190508181035f8301526114aa81611471565b9050919050565b5f6040820190506114c45f83018561114f565b6114d16020830184611067565b9392505050565b6114e18161108f565b81146114eb575f5ffd5b50565b5f815190506114fc816114d8565b92915050565b5f60208284031215611517576115166110c2565b5b5f611524848285016114ee565b91505092915050565b7f546f6b656e207472616e73666572206661696c656400000000000000000000005f82015250565b5f611561601583611369565b915061156c8261152d565b602082019050919050565b5f6020820190508181035f83015261158e81611555565b9050919050565b7f4e487b71000000000000000000000000000000000000000000000000000000005f52603260045260245ffd5b7f4e487b71000000000000000000000000000000000000000000000000000000005f52601160045260245ffd5b5f6115f98261105e565b91506116048361105e565b92508282026116128161105e565b91508282048414831517611629576116286115c2565b5b5092915050565b7f4e487b71000000000000000000000000000000000000000000000000000000005f52601260045260245ffd5b5f6116678261105e565b91506116728361105e565b92508261168257611681611630565b5b828204905092915050565b7f526566657272616c207472616e73666572206661696c656400000000000000005f82015250565b5f6116c1601883611369565b91506116cc8261168d565b602082019050919050565b5f6020820190508181035f8301526116ee816116b5565b9050919050565b5f6116ff8261105e565b915061170a8361105e565b9250828201905080821115611722576117216115c2565b5b92915050565b5f60408201905061173b5f830185611067565b6117486020830184611067565b9392505050565b5f6117598261105e565b91507fffffffffffffffffffffffffffffffffffffffffffffffffffffffffffffffff820361178b5761178a6115c2565b5b600182019050919050565b7f5769746864726177206661696c656400000000000000000000000000000000005f82015250565b5f6117ca600f83611369565b91506117d582611796565b602082019050919050565b5f6020820190508181035f8301526117f7816117be565b905091905056fea2646970667358221220614e18df9b2c146711dd63caac58154918f7b06e9a1eaff5098c08893d13585964736f6c634300081e0033","linkReferences":{}},"methodIdentifiers":{"claimAirdrop(address)":"65f8c6c5","endTime()":"3197cbb6","getContractTokenBalance()":"317d9453","hasClaimed(address)":"73b2e80e","hivxToken()":"c1225dd9","maxClaimPerUser()":"d7b52cda","owner()":"8da5cb5b","pause()":"8456cb59","paused()":"5c975abb","referralPercentages(uint256)":"b662abf5","referredUsers(address,uint256)":"e92820e6","referrerOf(address)":"d21cacdf","renounceOwnership()":"715018a6","transferOwnership(address)":"f2fde38b","unpause()":"3f4ba83a","updateReferralPercentages(uint256[])":"a410339e","withdrawRemaining()":"ee38db95"},"id":25}